{
  "contractName": "CRTExchange",
  "abi": [
    {
      "inputs": [],
      "stateMutability": "nonpayable",
      "type": "constructor"
    },
    {
      "anonymous": false,
      "inputs": [
        {
          "indexed": true,
          "internalType": "address",
          "name": "user",
          "type": "address"
        },
        {
          "indexed": false,
          "internalType": "uint256",
          "name": "amount",
          "type": "uint256"
        }
      ],
      "name": "Deposited",
      "type": "event"
    },
    {
      "anonymous": false,
      "inputs": [
        {
          "indexed": false,
          "internalType": "uint256",
          "name": "id",
          "type": "uint256"
        },
        {
          "indexed": true,
          "internalType": "address",
          "name": "user",
          "type": "address"
        }
      ],
      "name": "OrderMatched",
      "type": "event"
    },
    {
      "anonymous": false,
      "inputs": [
        {
          "indexed": false,
          "internalType": "uint256",
          "name": "id",
          "type": "uint256"
        },
        {
          "indexed": true,
          "internalType": "address",
          "name": "user",
          "type": "address"
        },
        {
          "indexed": false,
          "internalType": "bool",
          "name": "isBuy",
          "type": "bool"
        },
        {
          "indexed": false,
          "internalType": "uint256",
          "name": "amount",
          "type": "uint256"
        },
        {
          "indexed": false,
          "internalType": "uint256",
          "name": "price",
          "type": "uint256"
        }
      ],
      "name": "OrderPlaced",
      "type": "event"
    },
    {
      "anonymous": false,
      "inputs": [
        {
          "indexed": true,
          "internalType": "address",
          "name": "user",
          "type": "address"
        },
        {
          "indexed": false,
          "internalType": "uint256",
          "name": "amount",
          "type": "uint256"
        }
      ],
      "name": "Withdrawn",
      "type": "event"
    },
    {
      "inputs": [
        {
          "internalType": "address",
          "name": "",
          "type": "address"
        }
      ],
      "name": "balances",
      "outputs": [
        {
          "internalType": "uint256",
          "name": "",
          "type": "uint256"
        }
      ],
      "stateMutability": "view",
      "type": "function"
    },
    {
      "inputs": [],
      "name": "orderCount",
      "outputs": [
        {
          "internalType": "uint256",
          "name": "",
          "type": "uint256"
        }
      ],
      "stateMutability": "view",
      "type": "function"
    },
    {
      "inputs": [
        {
          "internalType": "uint256",
          "name": "",
          "type": "uint256"
        }
      ],
      "name": "orders",
      "outputs": [
        {
          "internalType": "uint256",
          "name": "id",
          "type": "uint256"
        },
        {
          "internalType": "address",
          "name": "user",
          "type": "address"
        },
        {
          "internalType": "bool",
          "name": "isBuy",
          "type": "bool"
        },
        {
          "internalType": "uint256",
          "name": "amount",
          "type": "uint256"
        },
        {
          "internalType": "uint256",
          "name": "price",
          "type": "uint256"
        },
        {
          "internalType": "bool",
          "name": "fulfilled",
          "type": "bool"
        }
      ],
      "stateMutability": "view",
      "type": "function"
    },
    {
      "inputs": [],
      "name": "owner",
      "outputs": [
        {
          "internalType": "address",
          "name": "",
          "type": "address"
        }
      ],
      "stateMutability": "view",
      "type": "function"
    },
    {
      "inputs": [
        {
          "internalType": "address",
          "name": "",
          "type": "address"
        }
      ],
      "name": "roles",
      "outputs": [
        {
          "internalType": "string",
          "name": "",
          "type": "string"
        }
      ],
      "stateMutability": "view",
      "type": "function"
    },
    {
      "inputs": [
        {
          "internalType": "uint256",
          "name": "",
          "type": "uint256"
        }
      ],
      "name": "transactionHistory",
      "outputs": [
        {
          "internalType": "uint256",
          "name": "orderId",
          "type": "uint256"
        },
        {
          "internalType": "address",
          "name": "user",
          "type": "address"
        },
        {
          "internalType": "bool",
          "name": "isBuy",
          "type": "bool"
        },
        {
          "internalType": "uint256",
          "name": "amount",
          "type": "uint256"
        },
        {
          "internalType": "uint256",
          "name": "price",
          "type": "uint256"
        },
        {
          "internalType": "uint256",
          "name": "timestamp",
          "type": "uint256"
        }
      ],
      "stateMutability": "view",
      "type": "function"
    },
    {
      "inputs": [],
      "name": "deposit",
      "outputs": [],
      "stateMutability": "payable",
      "type": "function"
    },
    {
      "inputs": [
        {
          "internalType": "uint256",
          "name": "amount",
          "type": "uint256"
        }
      ],
      "name": "withdraw",
      "outputs": [],
      "stateMutability": "nonpayable",
      "type": "function"
    },
    {
      "inputs": [
        {
          "internalType": "bool",
          "name": "isBuy",
          "type": "bool"
        },
        {
          "internalType": "uint256",
          "name": "amount",
          "type": "uint256"
        },
        {
          "internalType": "uint256",
          "name": "price",
          "type": "uint256"
        }
      ],
      "name": "placeOrder",
      "outputs": [],
      "stateMutability": "nonpayable",
      "type": "function"
    },
    {
      "inputs": [
        {
          "internalType": "uint256",
          "name": "id",
          "type": "uint256"
        }
      ],
      "name": "matchOrder",
      "outputs": [],
      "stateMutability": "nonpayable",
      "type": "function"
    },
    {
      "inputs": [],
      "name": "getTransactionHistory",
      "outputs": [
        {
          "components": [
            {
              "internalType": "uint256",
              "name": "orderId",
              "type": "uint256"
            },
            {
              "internalType": "address",
              "name": "user",
              "type": "address"
            },
            {
              "internalType": "bool",
              "name": "isBuy",
              "type": "bool"
            },
            {
              "internalType": "uint256",
              "name": "amount",
              "type": "uint256"
            },
            {
              "internalType": "uint256",
              "name": "price",
              "type": "uint256"
            },
            {
              "internalType": "uint256",
              "name": "timestamp",
              "type": "uint256"
            }
          ],
          "internalType": "struct CRTExchange.Transaction[]",
          "name": "",
          "type": "tuple[]"
        }
      ],
      "stateMutability": "view",
      "type": "function"
    },
    {
      "inputs": [
        {
          "internalType": "address",
          "name": "user",
          "type": "address"
        }
      ],
      "name": "getBalance",
      "outputs": [
        {
          "internalType": "uint256",
          "name": "",
          "type": "uint256"
        }
      ],
      "stateMutability": "view",
      "type": "function"
    },
    {
      "inputs": [
        {
          "internalType": "address",
          "name": "user",
          "type": "address"
        },
        {
          "internalType": "string",
          "name": "role",
          "type": "string"
        }
      ],
      "name": "setRole",
      "outputs": [],
      "stateMutability": "nonpayable",
      "type": "function"
    }
  ],
  "bytecode": "0x6080604052600060025534801561001557600080fd5b50600080546001600160a01b031916331790556115ac806100376000396000f3fe6080604052600436106100c25760003560e01c8063993746421161007f578063ca8b4f7a11610059578063ca8b4f7a14610229578063d0e30db014610249578063f832309b14610251578063f8b2cb4f14610271576100c2565b806399374642146101a8578063a85c38ef146101d5578063b76d4fc314610207576100c2565b8063243e7a87146100c75780632453ffa81461010257806327e235e3146101245780632e1a7d4d14610144578063887012c1146101665780638da5cb5b14610186575b600080fd5b3480156100d357600080fd5b506100e76100e2366004610f7f565b610291565b6040516100f99695949392919061144e565b60405180910390f35b34801561010e57600080fd5b506101176102e8565b6040516100f99190611412565b34801561013057600080fd5b5061011761013f366004610e72565b6102ee565b34801561015057600080fd5b5061016461015f366004610f7f565b610300565b005b34801561017257600080fd5b50610164610181366004610f7f565b61048c565b34801561019257600080fd5b5061019b6107df565b6040516100f99190611046565b3480156101b457600080fd5b506101c86101c3366004610e72565b6107ee565b6040516100f991906110dd565b3480156101e157600080fd5b506101f56101f0366004610f7f565b610888565b6040516100f99695949392919061141b565b34801561021357600080fd5b5061021c6108cb565b6040516100f9919061105a565b34801561023557600080fd5b50610164610244366004610f47565b610971565b610164610b18565b34801561025d57600080fd5b5061016461026c366004610e93565b610c0d565b34801561027d57600080fd5b5061011761028c366004610e72565b610c65565b600381815481106102a157600080fd5b6000918252602090912060059091020180546001820154600283015460038401546004909401549294506001600160a01b03821693600160a01b90920460ff169290919086565b60025481565b60046020526000908152604090205481565b60405160200161030f90611035565b60408051601f19818403018152828252805160209182012033600090815260018352929092209192610342929101610f97565b604051602081830303815290604052805190602001201461037e5760405162461bcd60e51b81526004016103759061125a565b60405180910390fd5b336000908152600460205260409020548111156103ad5760405162461bcd60e51b81526004016103759061122c565b33600090815260046020526040812080548392906103cc9084906114dd565b9091555050604051600090339083906103e490611032565b60006040518083038185875af1925050503d8060008114610421576040519150601f19603f3d011682016040523d82523d6000602084013e610426565b606091505b50509050806104475760405162461bcd60e51b815260040161037590611379565b336001600160a01b03167f7084f5476618d8e60b11ef0d7d3f06914655adb8793e28ff7f018d4c76d505d5836040516104809190611412565b60405180910390a25050565b6000818152600560205260409020600481015460ff16156104bf5760405162461bcd60e51b815260040161037590611179565b60018101546001600160a01b03163314156104ec5760405162461bcd60e51b815260040161037590611342565b60008160030154826002015461050291906114be565b6001830154909150600160a01b900460ff161561064257600282015433600090815260046020526040902054101561054c5760405162461bcd60e51b8152600401610375906112e3565b60018201546001600160a01b03166000908152600460205260409020548111156105885760405162461bcd60e51b815260040161037590611313565b60018201546001600160a01b0316600090815260046020526040812080548392906105b49084906114dd565b909155505033600090815260046020526040812080548392906105d89084906114a6565b9091555050600282015433600090815260046020526040812080549091906106019084906114dd565b9091555050600282015460018301546001600160a01b0316600090815260046020526040812080549091906106379084906114a6565b909155506107669050565b336000908152600460205260409020548111156106715760405162461bcd60e51b815260040161037590611313565b600282015460018301546001600160a01b031660009081526004602052604090205410156106b15760405162461bcd60e51b8152600401610375906112e3565b33600090815260046020526040812080548392906106d09084906114dd565b909155505060018201546001600160a01b0316600090815260046020526040812080548392906107019084906114a6565b9091555050600282015460018301546001600160a01b0316600090815260046020526040812080549091906107379084906114dd565b9091555050600282015433600090815260046020526040812080549091906107609084906114a6565b90915550505b6107908260000154338460010160149054906101000a900460ff1685600201548660030154610c84565b60048201805460ff19166001179055815460405133917ff25a05118e210ce1060e78f9ef6383d8cb0e4408114aa3a5eded9791a053a049916107d29190611412565b60405180910390a2505050565b6000546001600160a01b031681565b60016020526000908152604090208054610807906114f4565b80601f0160208091040260200160405190810160405280929190818152602001828054610833906114f4565b80156108805780601f1061085557610100808354040283529160200191610880565b820191906000526020600020905b81548152906001019060200180831161086357829003601f168201915b505050505081565b6005602052600090815260409020805460018201546002830154600384015460049094015492936001600160a01b0383169360ff600160a01b9094048416931686565b60606003805480602002602001604051908101604052809291908181526020016000905b828210156109685760008481526020908190206040805160c08101825260058602909201805483526001808201546001600160a01b03811685870152600160a01b900460ff1615159284019290925260028101546060840152600381015460808401526004015460a083015290835290920191016108ef565b50505050905090565b6000821180156109815750600081115b61099d5760405162461bcd60e51b815260040161037590611130565b60006109a982846114be565b905083156109e557336000908152600460205260409020548111156109e05760405162461bcd60e51b8152600401610375906113dd565b610a14565b33600090815260046020526040902054831115610a145760405162461bcd60e51b8152600401610375906113a6565b60028054906000610a248361152f565b90915550506040805160c081018252600280548083523360208085018281528a1515868801908152606087018b8152608088018b8152600060a08a0181815297815260059095529389902097518855915160018801805492516001600160a01b03199093166001600160a01b039092169190911760ff60a01b1916600160a01b92151592909202919091179055518585015551600385015590516004909301805460ff19169315159390931790925554915190917fa8d12dd5402d0aa9ccaa7a1346ef5a510e0c3ee938c13587bf17e59671b2ebee91610b0a919088908890889061147f565b60405180910390a250505050565b604051602001610b2790611035565b60408051601f19818403018152828252805160209182012033600090815260018352929092209192610b5a929101610f97565b6040516020818303038152906040528051906020012014610b8d5760405162461bcd60e51b8152600401610375906111e7565b60003411610bad5760405162461bcd60e51b8152600401610375906112a0565b3360009081526004602052604081208054349290610bcc9084906114a6565b909155505060405133907f2da466a7b24304f47e87fa2e1e5a81b9831ce54fec19055ce277ca2f39ba42c490610c03903490611412565b60405180910390a2565b6000546001600160a01b03163314610c375760405162461bcd60e51b8152600401610375906111b0565b6001600160a01b03821660009081526001602090815260409091208251610c6092840190610dc2565b505050565b6001600160a01b0381166000908152600460205260409020545b919050565b6040805160c0810182529586526001600160a01b039485166020870190815293151590860190815260608601928352608086019182524260a087019081526003805460018101825560009190915296517fc2575a0e9e593c00f959f8c92f12db2869c3395a3b0502d05e2516446f71f85b60059098029788015593517fc2575a0e9e593c00f959f8c92f12db2869c3395a3b0502d05e2516446f71f85c8701805492516001600160a01b0319909316919096161760ff60a01b1916600160a01b9115159190910217909355517fc2575a0e9e593c00f959f8c92f12db2869c3395a3b0502d05e2516446f71f85d84015590517fc2575a0e9e593c00f959f8c92f12db2869c3395a3b0502d05e2516446f71f85e830155517fc2575a0e9e593c00f959f8c92f12db2869c3395a3b0502d05e2516446f71f85f90910155565b828054610dce906114f4565b90600052602060002090601f016020900481019282610df05760008555610e36565b82601f10610e0957805160ff1916838001178555610e36565b82800160010185558215610e36579182015b82811115610e36578251825591602001919060010190610e1b565b50610e42929150610e46565b5090565b5b80821115610e425760008155600101610e47565b80356001600160a01b0381168114610c7f57600080fd5b600060208284031215610e83578081fd5b610e8c82610e5b565b9392505050565b60008060408385031215610ea5578081fd5b610eae83610e5b565b915060208084013567ffffffffffffffff80821115610ecb578384fd5b818601915086601f830112610ede578384fd5b813581811115610ef057610ef0611560565b604051601f8201601f1916810185018381118282101715610f1357610f13611560565b6040528181528382018501891015610f29578586fd5b81858501868301378585838301015280955050505050509250929050565b600080600060608486031215610f5b578081fd5b83358015158114610f6a578182fd5b95602085013595506040909401359392505050565b600060208284031215610f90578081fd5b5035919050565b8154600090819060028104600180831680610fb357607f831692505b6020808410821415610fd357634e487b7160e01b87526022600452602487fd5b818015610fe75760018114610ff857611024565b60ff19861689528489019650611024565b6110018a61149a565b885b8681101561101c5781548b820152908501908301611003565b505084890196505b509498975050505050505050565b90565b6420a226a4a760d91b815260050190565b6001600160a01b0391909116815260200190565b602080825282518282018190526000919060409081850190868401855b828110156110d057815180518552868101516001600160a01b03168786015285810151151586860152606080820151908601526080808201519086015260a0908101519085015260c09093019290850190600101611077565b5091979650505050505050565b6000602080835283518082850152825b81811015611109578581018301518582016040015282016110ed565b8181111561111a5783604083870101525b50601f01601f1916929092016040019392505050565b60208082526029908201527f5175616e7469747920616e64207072696365206d75737420626520677265617460408201526806572207468616e20360bc1b606082015260800190565b60208082526017908201527f4f7264657220616c72656164792066756c66696c6c6564000000000000000000604082015260600190565b6020808252601c908201527f4f6e6c7920746865206f776e65722063616e2073657420726f6c657300000000604082015260600190565b60208082526025908201527f596f7520617265206e6f7420617574686f72697a656420746f206465706f73696040820152641d0810d49560da1b606082015260800190565b602080825260149082015273496e73756666696369656e742062616c616e636560601b604082015260600190565b60208082526026908201527f596f7520617265206e6f7420617574686f72697a656420746f20776974686472604082015265185dc810d49560d21b606082015260800190565b60208082526023908201527f4d7573742073656e642045544820616d6f756e7420677265617465722074686160408201526206e20360ec1b606082015260800190565b602080825260169082015275139bdd08195b9bdd59da0810d495081d1bc81cd95b1b60521b604082015260600190565b6020808252601590820152744e6f7420656e6f7567682045544820746f2062757960581b604082015260600190565b6020808252601c908201527f43616e6e6f74206d6174636820796f7572206f776e206f726465727300000000604082015260600190565b602080825260139082015272115512081d1c985b9cd9995c8819985a5b1959606a1b604082015260600190565b60208082526017908201527f4e6f7420656e6f756768204352547320746f2073656c6c000000000000000000604082015260600190565b6020808252818101527f496e73756666696369656e742062616c616e636520746f207075726368617365604082015260600190565b90815260200190565b9586526001600160a01b03949094166020860152911515604085015260608401526080830152151560a082015260c00190565b9586526001600160a01b0394909416602086015291151560408501526060840152608083015260a082015260c00190565b93845291151560208401526040830152606082015260800190565b60009081526020902090565b600082198211156114b9576114b961154a565b500190565b60008160001904831182151516156114d8576114d861154a565b500290565b6000828210156114ef576114ef61154a565b500390565b60028104600182168061150857607f821691505b6020821081141561152957634e487b7160e01b600052602260045260246000fd5b50919050565b60006000198214156115435761154361154a565b5060010190565b634e487b7160e01b600052601160045260246000fd5b634e487b7160e01b600052604160045260246000fdfea2646970667358221220e18e1ec6dec75afccead3d08cb008d8f57cc68ff7b6ec6e59082ad8200783b5164736f6c63430008000033",
  "immutableReferences": {},
  "source": "// SPDX-License-Identifier: MIT\r\npragma solidity ^0.8.0;\r\n\r\ncontract CRTExchange {\r\n    address public owner;  // a ch ca ch s hu hp ng\r\n    mapping(address => string) public roles;  // nh du vai tr ngi dng\r\n    uint public orderCount = 0;  // S lng lnh  c to\r\n\r\n    // Cu trc Order (Lnh mua/bn)\r\n    struct Order {\r\n        uint id;           // ID ca lnh\r\n        address user;      // a ch ngi dng to lnh\r\n        bool isBuy;        // true = Mua, false = Bn\r\n        uint amount;       // S lng CRT\r\n        uint price;        // Gi mi CRT (tnh bng Wei)\r\n        bool fulfilled;    // Lnh  c khp hay cha\r\n    }\r\n\r\n    // Cu trc Transaction (Lch s giao dch)\r\n    struct Transaction {\r\n        uint orderId;\r\n        address user;\r\n        bool isBuy;\r\n        uint amount;\r\n        uint price;\r\n        uint timestamp;\r\n    }\r\n\r\n    // Mng lu lch s giao dch\r\n    Transaction[] public transactionHistory;\r\n\r\n    // Mappings  lu tr s d ca ngi dng v cc n hng\r\n    mapping(address => uint) public balances;\r\n    mapping(uint => Order) public orders;\r\n\r\n    // Events\r\n    event Deposited(address indexed user, uint amount);  // S kin np CRT\r\n    event Withdrawn(address indexed user, uint amount);  // S kin rt CRT\r\n    event OrderPlaced(uint id, address indexed user, bool isBuy, uint amount, uint price);  // S kin t lnh\r\n    event OrderMatched(uint id, address indexed user);  // S kin khp lnh\r\n\r\n    constructor() {\r\n        owner = msg.sender;  // Ngi trin khai hp ng l ch s hu\r\n    }\r\n\r\n    //  Np CRT (gi ETH vo hp ng) - ch cho php admin np\r\n    function deposit() public payable {\r\n        require(keccak256(abi.encodePacked(roles[msg.sender])) == keccak256(abi.encodePacked(\"ADMIN\")), \"You are not authorized to deposit CRT\");\r\n        require(msg.value > 0, \"Must send ETH amount greater than 0\");\r\n        balances[msg.sender] += msg.value;  // Tng s d ca ngi gi\r\n        emit Deposited(msg.sender, msg.value);  // Ghi li s kin np CRT\r\n    }\r\n\r\n    //  Rt CRT (rt ETH t hp ng) - ch cho php admin rt\r\n    function withdraw(uint amount) public {\r\n        require(keccak256(abi.encodePacked(roles[msg.sender])) == keccak256(abi.encodePacked(\"ADMIN\")), \"You are not authorized to withdraw CRT\");\r\n        require(balances[msg.sender] >= amount, \"Insufficient balance\");\r\n\r\n        balances[msg.sender] -= amount;  // Gim s d ca ngi gi\r\n\r\n        // Gi ETH v v ca ngi yu cu rt\r\n        (bool success, ) = msg.sender.call{value: amount}(\"\");\r\n        require(success, \"ETH transfer failed\");\r\n\r\n        emit Withdrawn(msg.sender, amount);  // Ghi li s kin rt CRT\r\n    }\r\n\r\n    //  To lnh mua/bn (dnh cho c admin v user)\r\n    function placeOrder(bool isBuy, uint amount, uint price) public {\r\n        require(amount > 0 && price > 0, \"Quantity and price must be greater than 0\");\r\n        uint total = amount * price;\r\n\r\n        // Kim tra nu l lnh mua, ngi dng cn  s d ETH\r\n        if (isBuy) {\r\n            require(balances[msg.sender] >= total, \"Insufficient balance to purchase\");\r\n        } else {\r\n            // Kim tra nu l lnh bn, ngi dng cn c  CRT  bn\r\n            require(balances[msg.sender] >= amount, \"Not enough CRTs to sell\");\r\n        }\r\n\r\n        orderCount++;  // Tng s lng lnh\r\n        orders[orderCount] = Order(orderCount, msg.sender, isBuy, amount, price, false);  // Lu thng tin lnh\r\n        emit OrderPlaced(orderCount, msg.sender, isBuy, amount, price);  // Ghi li s kin t lnh\r\n    }\r\n\r\n    //  Khp lnh mua/bn (dnh cho c admin v user)\r\n    function matchOrder(uint id) public {\r\n        Order storage order = orders[id];\r\n        require(!order.fulfilled, \"Order already fulfilled\");  // Kim tra lnh  c khp cha\r\n        require(order.user != msg.sender, \"Cannot match your own orders\");  // Ngi khp khng th khp lnh ca chnh mnh\r\n\r\n        uint totalPrice = order.amount * order.price;  // Tnh gi tr tng ca lnh\r\n\r\n        if (order.isBuy) {\r\n            // Nu l lnh mua: ngi khp s l ngi bn\r\n            require(balances[msg.sender] >= order.amount, \"Not enough CRT to sell\");\r\n            require(balances[order.user] >= totalPrice, \"Not enough ETH to buy\");\r\n\r\n            // Ngi mua tr tin cho ngi bn\r\n            balances[order.user] -= totalPrice;\r\n            balances[msg.sender] += totalPrice;\r\n\r\n            // Ngi bn chuyn CRT cho ngi mua\r\n            balances[msg.sender] -= order.amount;\r\n            balances[order.user] += order.amount;\r\n        } else {\r\n            // Nu l lnh bn: ngi khp s l ngi mua\r\n            require(balances[msg.sender] >= totalPrice, \"Not enough ETH to buy\");\r\n            require(balances[order.user] >= order.amount, \"Not enough CRT to sell\");\r\n\r\n            // Ngi mua tr tin cho ngi bn\r\n            balances[msg.sender] -= totalPrice;\r\n            balances[order.user] += totalPrice;\r\n\r\n            // Ngi mua nhn CRT t ngi bn\r\n            balances[order.user] -= order.amount;\r\n            balances[msg.sender] += order.amount;\r\n        }\r\n\r\n        // Ghi li giao dch trong lch s\r\n        recordTransaction(order.id, msg.sender, order.isBuy, order.amount, order.price);\r\n\r\n        order.fulfilled = true;  // nh du lnh  c khp\r\n        emit OrderMatched(order.id, msg.sender);  // Ghi li s kin khp lnh\r\n    }\r\n\r\n    // Ghi li giao dch trong lch s\r\n    function recordTransaction(uint orderId, address user, bool isBuy, uint amount, uint price) private {\r\n        transactionHistory.push(Transaction(orderId, user, isBuy, amount, price, block.timestamp));\r\n    }\r\n\r\n    //  Ly lch s giao dch\r\n    function getTransactionHistory() public view returns (Transaction[] memory) {\r\n        return transactionHistory;\r\n    }\r\n\r\n    //  Ly s d ca ngi dng\r\n    function getBalance(address user) public view returns (uint) {\r\n        return balances[user];\r\n    }\r\n\r\n    //  Cp nht vai tr ca ngi dng\r\n    function setRole(address user, string memory role) public {\r\n        require(msg.sender == owner, \"Only the owner can set roles\");  // Ch ch s hu hp ng mi c th thay i vai tr\r\n        roles[user] = role;\r\n    }\r\n}\r\n",
  "sourcePath": "D:\\DOWNLOADS\\VAA\\HK8\\BlockChain\\Crypto\\contracts\\CRTExchange.sol",
  "compiler": {
    "name": "solc",
    "version": "0.8.0+commit.c7dfd78e.Emscripten.clang"
  },
  "schemaVersion": "3.4.16",
  "updatedAt": "2025-03-29T16:50:02.221Z",
  "devdoc": {
    "kind": "dev",
    "methods": {},
    "version": 1
  },
  "userdoc": {
    "kind": "user",
    "methods": {},
    "version": 1
  }
}